:020000040800F2
:1000000060060020B1010008B9010008BB0100082A
:10001000BD010008BF010008C10100080000000088
:10002000000000000000000000000000C301000804
:10003000C501000800000000C7010008C901000850
:10004000CB010008CB010008CB010008CB01000860
:10005000CB010008CB010008CB010008CB01000850
:10006000CB010008CB010008CB010008CB01000840
:10007000CB010008CB010008CB010008CB01000830
:10008000CB010008CB010008CB010008CB01000820
:10009000CB010008CB010008CB010008CB01000810
:1000A000CB010008CB010008CB010008CB01000800
:1000B000CB010008CB010008CB010008CB010008F0
:1000C000CB010008CB010008CB010008CB010008E0
:1000D000CB010008CB010008CB010008CB010008D0
:1000E000CB010008CB010008CB010008CB010008C0
:1000F000CB010008CB010008CB010008CB010008B0
:10010000CB010008CB010008CB010008CB0100089F
:10011000CB010008CB010008CB010008CB0100088F
:10012000CB010008CB010008CB010008CB0100087F
:1001300000F002F800F02CF80AA090E8000C8244CD
:100140008344AAF10107DA4501D100F021F8AFF2AA
:10015000090EBAE80F0013F0010F18BFFB1A43F0A5
:1001600001031847D8010000E80100000023002423
:1001700000250026103A28BF78C1FBD8520728BFB7
:1001800030C148BF0B6070471FB51FBD10B510BD13
:1001900000F031F81146FFF7F7FF00F063F800F0C8
:1001A0004FF803B4FFF7F2FF03BC00F053F8000070
:1001B0000948804709480047FEE7FEE7FEE7FEE7FB
:1001C000FEE7FEE7FEE7FEE7FEE7FEE70448054937
:1001D000054A064B70470000630200083101000821
:1001E0006000002060060020600200206002002005
:1001F000704770477047754600F028F8AE46050016
:100200006946534620F00700854618B020B5FFF731
:10021000DDFFBDE820404FF000064FF000074FF033
:1002200000084FF0000B21F00701AC46ACE8C00914
:10023000ACE8C009ACE8C009ACE8C0098D4670471D
:100240000446AFF300802046FFF7ABFF004870473D
:100250000000002001491820ABBEFEE72600020086
:10026000704770473048806940F008002E49886127
:1002700059E000202D49096821F00F012B4A116037
:100280001146096841F00101116028490C310968E3
:1002900021F00101254A0C32116000E0401C244984
:1002A0008842FBDB2149096821F00F011F4A1160D8
:1002B0001146096821F0F00111601146096841F00A
:1002C0001001116019490C31096821F00201174A27
:1002D0000C32116000E0401C16498842FBDB1349D8
:1002E000096821F0F001114A11601146096821F4F2
:1002F000700111601146096841F4801111600B49C9
:100300000C31096821F02001084A0C32116000E02C
:10031000401C09498842FBDB0449096821F470014B
:10032000024A116000BFA4E700100240000C014027
:1003300040420F0080841E00C0C62D004C03000800
:0C03400000000020600600006C010008B6
:0400000508000131BD
:00000001FF
